{
  "contractName": "Betting",
  "abi": [
    {
      "anonymous": false,
      "inputs": [
        {
          "indexed": false,
          "internalType": "string",
          "name": "team",
          "type": "string"
        },
        {
          "indexed": false,
          "internalType": "uint256",
          "name": "amount",
          "type": "uint256"
        },
        {
          "indexed": false,
          "internalType": "address",
          "name": "owner",
          "type": "address"
        }
      ],
      "name": "WagerAdded",
      "type": "event"
    },
    {
      "anonymous": false,
      "inputs": [
        {
          "indexed": false,
          "internalType": "uint256",
          "name": "id",
          "type": "uint256"
        },
        {
          "indexed": false,
          "internalType": "uint256",
          "name": "price",
          "type": "uint256"
        },
        {
          "indexed": false,
          "internalType": "address",
          "name": "team1",
          "type": "address"
        },
        {
          "indexed": false,
          "internalType": "address",
          "name": "team2",
          "type": "address"
        }
      ],
      "name": "WagerMatched",
      "type": "event"
    },
    {
      "inputs": [],
      "name": "BetCount",
      "outputs": [
        {
          "internalType": "uint256",
          "name": "",
          "type": "uint256"
        }
      ],
      "stateMutability": "view",
      "type": "function"
    },
    {
      "inputs": [
        {
          "internalType": "uint256",
          "name": "",
          "type": "uint256"
        }
      ],
      "name": "Bets",
      "outputs": [
        {
          "internalType": "uint256",
          "name": "id",
          "type": "uint256"
        },
        {
          "components": [
            {
              "internalType": "uint256",
              "name": "id",
              "type": "uint256"
            },
            {
              "internalType": "address payable",
              "name": "Bettor",
              "type": "address"
            },
            {
              "internalType": "string",
              "name": "Team",
              "type": "string"
            },
            {
              "internalType": "uint256",
              "name": "Amount",
              "type": "uint256"
            },
            {
              "internalType": "address",
              "name": "Preference",
              "type": "address"
            },
            {
              "internalType": "bool",
              "name": "foundMatch",
              "type": "bool"
            }
          ],
          "internalType": "struct Betting.Wager",
          "name": "wager1",
          "type": "tuple"
        },
        {
          "components": [
            {
              "internalType": "uint256",
              "name": "id",
              "type": "uint256"
            },
            {
              "internalType": "address payable",
              "name": "Bettor",
              "type": "address"
            },
            {
              "internalType": "string",
              "name": "Team",
              "type": "string"
            },
            {
              "internalType": "uint256",
              "name": "Amount",
              "type": "uint256"
            },
            {
              "internalType": "address",
              "name": "Preference",
              "type": "address"
            },
            {
              "internalType": "bool",
              "name": "foundMatch",
              "type": "bool"
            }
          ],
          "internalType": "struct Betting.Wager",
          "name": "wager2",
          "type": "tuple"
        },
        {
          "internalType": "bool",
          "name": "closed",
          "type": "bool"
        }
      ],
      "stateMutability": "view",
      "type": "function"
    },
    {
      "inputs": [],
      "name": "WagerCount",
      "outputs": [
        {
          "internalType": "uint256",
          "name": "",
          "type": "uint256"
        }
      ],
      "stateMutability": "view",
      "type": "function"
    },
    {
      "inputs": [
        {
          "internalType": "uint256",
          "name": "",
          "type": "uint256"
        }
      ],
      "name": "Wagers",
      "outputs": [
        {
          "internalType": "uint256",
          "name": "id",
          "type": "uint256"
        },
        {
          "internalType": "address payable",
          "name": "Bettor",
          "type": "address"
        },
        {
          "internalType": "string",
          "name": "Team",
          "type": "string"
        },
        {
          "internalType": "uint256",
          "name": "Amount",
          "type": "uint256"
        },
        {
          "internalType": "address",
          "name": "Preference",
          "type": "address"
        },
        {
          "internalType": "bool",
          "name": "foundMatch",
          "type": "bool"
        }
      ],
      "stateMutability": "view",
      "type": "function"
    },
    {
      "inputs": [
        {
          "internalType": "address",
          "name": "",
          "type": "address"
        },
        {
          "internalType": "uint256",
          "name": "",
          "type": "uint256"
        }
      ],
      "name": "Waitlist",
      "outputs": [
        {
          "internalType": "uint256",
          "name": "id",
          "type": "uint256"
        },
        {
          "internalType": "address payable",
          "name": "Bettor",
          "type": "address"
        },
        {
          "internalType": "string",
          "name": "Team",
          "type": "string"
        },
        {
          "internalType": "uint256",
          "name": "Amount",
          "type": "uint256"
        },
        {
          "internalType": "address",
          "name": "Preference",
          "type": "address"
        },
        {
          "internalType": "bool",
          "name": "foundMatch",
          "type": "bool"
        }
      ],
      "stateMutability": "view",
      "type": "function"
    },
    {
      "inputs": [
        {
          "internalType": "string",
          "name": "team1",
          "type": "string"
        },
        {
          "internalType": "string",
          "name": "team2",
          "type": "string"
        }
      ],
      "name": "addGame",
      "outputs": [],
      "stateMutability": "nonpayable",
      "type": "function"
    },
    {
      "inputs": [
        {
          "internalType": "string",
          "name": "team",
          "type": "string"
        },
        {
          "internalType": "address",
          "name": "preference",
          "type": "address"
        }
      ],
      "name": "addWager",
      "outputs": [],
      "stateMutability": "payable",
      "type": "function"
    },
    {
      "inputs": [
        {
          "internalType": "string",
          "name": "winner",
          "type": "string"
        }
      ],
      "name": "closeBets",
      "outputs": [],
      "stateMutability": "nonpayable",
      "type": "function"
    },
    {
      "inputs": [],
      "name": "withdraw",
      "outputs": [],
      "stateMutability": "nonpayable",
      "type": "function"
    }
  ],
  "bytecode": "0x608060405234801561001057600080fd5b506121ea806100206000396000f3fe60806040526004361061004a5760003560e01c80633ccfd60b1461004f5780636965040314610066578063883c94861461008f578063a5c86b77146100ab578063c3fe3e28146100d4575b600080fd5b34801561005b57600080fd5b50610064610103565b005b34801561007257600080fd5b5061008d60048036038101906100889190611ce5565b610214565b005b6100a960048036038101906100a49190611d26565b610437565b005b3480156100b757600080fd5b506100d260048036038101906100cd9190611d7a565b610bc0565b005b3480156100e057600080fd5b506100e9610c04565b6040516100fa959493929190611fdf565b60405180910390f35b60008060050160003373ffffffffffffffffffffffffffffffffffffffff1673ffffffffffffffffffffffffffffffffffffffff16815260200190815260200160002054905060008060050160003373ffffffffffffffffffffffffffffffffffffffff1673ffffffffffffffffffffffffffffffffffffffff168152602001908152602001600020819055503373ffffffffffffffffffffffffffffffffffffffff166108fc829081150290604051600060405180830381858888f193505050506102115780600060050160003373ffffffffffffffffffffffffffffffffffffffff1673ffffffffffffffffffffffffffffffffffffffff168152602001908152602001600020819055505b50565b6000600190505b60006003015481116104335760006006016000828152602001908152602001600020600b0160009054906101000a900460ff161561025857610426565b816040516020016102699190611f8f565b60405160208183030381529060405280519060200120600060060160008381526020019081526020016000206001016002016040516020016102ab9190611fa6565b60405160208183030381529060405280519060200120141561035d576000600601600082815260200190815260200160002060010160010160009054906101000a900473ffffffffffffffffffffffffffffffffffffffff1673ffffffffffffffffffffffffffffffffffffffff166108fc60026000600601600085815260200190815260200160002060010160030154029081150290604051600060405180830381858888f1935050505050610425565b6000600601600082815260200190815260200160002060060160010160009054906101000a900473ffffffffffffffffffffffffffffffffffffffff1673ffffffffffffffffffffffffffffffffffffffff166108fc60026000600601600085815260200190815260200160002060010160030154029081150290604051600060405180830381858888f1935050505061042457600160006006016000838152602001908152602001600020600b0160006101000a81548160ff0219169083151502179055505b5b5b808060010191505061021b565b5050565b34600060050160003373ffffffffffffffffffffffffffffffffffffffff1673ffffffffffffffffffffffffffffffffffffffff16815260200190815260200160002060008282540192505081905550600073ffffffffffffffffffffffffffffffffffffffff168173ffffffffffffffffffffffffffffffffffffffff1614156107de576000600401600081548092919060010191905055506040518060c0016040528060006004015481526020013373ffffffffffffffffffffffffffffffffffffffff1681526020018381526020013481526020018273ffffffffffffffffffffffffffffffffffffffff1681526020016000151581525060006007016000806004015481526020019081526020016000206000820151816000015560208201518160010160006101000a81548173ffffffffffffffffffffffffffffffffffffffff021916908373ffffffffffffffffffffffffffffffffffffffff16021790555060408201518160020190805190602001906105b9929190611bca565b506060820151816003015560808201518160040160006101000a81548173ffffffffffffffffffffffffffffffffffffffff021916908373ffffffffffffffffffffffffffffffffffffffff16021790555060a08201518160040160146101000a81548160ff0219169083151502179055509050506107d860006007016000806004015481526020019081526020016000206040518060c0016040529081600082015481526020016001820160009054906101000a900473ffffffffffffffffffffffffffffffffffffffff1673ffffffffffffffffffffffffffffffffffffffff1673ffffffffffffffffffffffffffffffffffffffff168152602001600282018054600181600116156101000203166002900480601f01602080910402602001604051908101604052809291908181526020018280546001816001161561010002031660029004801561074f5780601f106107245761010080835404028352916020019161074f565b820191906000526020600020905b81548152906001019060200180831161073257829003601f168201915b50505050508152602001600382015481526020016004820160009054906101000a900473ffffffffffffffffffffffffffffffffffffffff1673ffffffffffffffffffffffffffffffffffffffff1673ffffffffffffffffffffffffffffffffffffffff1681526020016004820160149054906101000a900460ff161515151581525050610d58565b50610bbc565b600060080160008273ffffffffffffffffffffffffffffffffffffffff1673ffffffffffffffffffffffffffffffffffffffff1681526020019081526020016000206040518060c00160405280600081526020013373ffffffffffffffffffffffffffffffffffffffff1681526020018481526020013481526020018373ffffffffffffffffffffffffffffffffffffffff1681526020016000151581525090806001815401808255809150506001900390600052602060002090600502016000909190919091506000820151816000015560208201518160010160006101000a81548173ffffffffffffffffffffffffffffffffffffffff021916908373ffffffffffffffffffffffffffffffffffffffff1602179055506040820151816002019080519060200190610913929190611bca565b506060820151816003015560808201518160040160006101000a81548173ffffffffffffffffffffffffffffffffffffffff021916908373ffffffffffffffffffffffffffffffffffffffff16021790555060a08201518160040160146101000a81548160ff0219169083151502179055505050610bba600060080160008373ffffffffffffffffffffffffffffffffffffffff1673ffffffffffffffffffffffffffffffffffffffff1681526020019081526020016000206001600060080160008573ffffffffffffffffffffffffffffffffffffffff1673ffffffffffffffffffffffffffffffffffffffff168152602001908152602001600020805490500381548110610a1f57fe5b90600052602060002090600502016040518060c0016040529081600082015481526020016001820160009054906101000a900473ffffffffffffffffffffffffffffffffffffffff1673ffffffffffffffffffffffffffffffffffffffff1673ffffffffffffffffffffffffffffffffffffffff168152602001600282018054600181600116156101000203166002900480601f016020809104026020016040519081016040528092919081815260200182805460018160011615610100020316600290048015610b315780601f10610b0657610100808354040283529160200191610b31565b820191906000526020600020905b815481529060010190602001808311610b1457829003601f168201915b50505050508152602001600382015481526020016004820160009054906101000a900473ffffffffffffffffffffffffffffffffffffffff1673ffffffffffffffffffffffffffffffffffffffff1673ffffffffffffffffffffffffffffffffffffffff1681526020016004820160149054906101000a900460ff161515151581525050610d58565b505b5050565b82600080019080519060200190610bd8929190611bca565b508160006001019080519060200190610bf2929190611bca565b50804201600060020181905550505050565b6000806000018054600181600116156101000203166002900480601f016020809104026020016040519081016040528092919081815260200182805460018160011615610100020316600290048015610c9e5780601f10610c7357610100808354040283529160200191610c9e565b820191906000526020600020905b815481529060010190602001808311610c8157829003601f168201915b505050505090806001018054600181600116156101000203166002900480601f016020809104026020016040519081016040528092919081815260200182805460018160011615610100020316600290048015610d3c5780601f10610d1157610100808354040283529160200191610d3c565b820191906000526020600020905b815481529060010190602001808311610d1f57829003601f168201915b5050505050908060020154908060030154908060040154905085565b60008060006008016000846020015173ffffffffffffffffffffffffffffffffffffffff1673ffffffffffffffffffffffffffffffffffffffff16815260200190815260200160002080549050146115b15760005b60006008016000846020015173ffffffffffffffffffffffffffffffffffffffff1673ffffffffffffffffffffffffffffffffffffffff168152602001908152602001600020805490508110156115af5760006008016000846020015173ffffffffffffffffffffffffffffffffffffffff1673ffffffffffffffffffffffffffffffffffffffff1681526020019081526020016000208181548110610e4f57fe5b906000526020600020906005020160040160149054906101000a900460ff16158015610f2c575060006008016000846020015173ffffffffffffffffffffffffffffffffffffffff1673ffffffffffffffffffffffffffffffffffffffff1681526020019081526020016000208181548110610ec757fe5b9060005260206000209060050201600201604051602001610ee89190612040565b604051602081830303815290604052805190602001208360400151604051602001610f139190611fbd565b6040516020818303038152906040528051906020012014155b156115a25760006008016000846020015173ffffffffffffffffffffffffffffffffffffffff1673ffffffffffffffffffffffffffffffffffffffff1681526020019081526020016000208181548110610f8257fe5b906000526020600020906005020160030154836060015114156115a157826060015160006005016000856020015173ffffffffffffffffffffffffffffffffffffffff1673ffffffffffffffffffffffffffffffffffffffff16815260200190815260200160002060008282540392505081905550826060015160006005016000806008016000876020015173ffffffffffffffffffffffffffffffffffffffff1673ffffffffffffffffffffffffffffffffffffffff168152602001908152602001600020848154811061105357fe5b906000526020600020906005020160010160009054906101000a900473ffffffffffffffffffffffffffffffffffffffff1673ffffffffffffffffffffffffffffffffffffffff1673ffffffffffffffffffffffffffffffffffffffff1681526020019081526020016000206000828254039250508190555060018360a0019015159081151581525050600160006008016000856020015173ffffffffffffffffffffffffffffffffffffffff1673ffffffffffffffffffffffffffffffffffffffff168152602001908152602001600020828154811061113057fe5b906000526020600020906005020160040160146101000a81548160ff0219169083151502179055506000600301600081548092919060010191905055506040518060800160405280600060030154815260200184815260200160006008016000866020015173ffffffffffffffffffffffffffffffffffffffff1673ffffffffffffffffffffffffffffffffffffffff16815260200190815260200160002083815481106111da57fe5b90600052602060002090600502016040518060c0016040529081600082015481526020016001820160009054906101000a900473ffffffffffffffffffffffffffffffffffffffff1673ffffffffffffffffffffffffffffffffffffffff1673ffffffffffffffffffffffffffffffffffffffff168152602001600282018054600181600116156101000203166002900480601f0160208091040260200160405190810160405280929190818152602001828054600181600116156101000203166002900480156112ec5780601f106112c1576101008083540402835291602001916112ec565b820191906000526020600020905b8154815290600101906020018083116112cf57829003601f168201915b50505050508152602001600382015481526020016004820160009054906101000a900473ffffffffffffffffffffffffffffffffffffffff1673ffffffffffffffffffffffffffffffffffffffff1673ffffffffffffffffffffffffffffffffffffffff1681526020016004820160149054906101000a900460ff1615151515815250508152602001600015158152506000600601600080600301548152602001908152602001600020600082015181600001556020820151816001016000820151816000015560208201518160010160006101000a81548173ffffffffffffffffffffffffffffffffffffffff021916908373ffffffffffffffffffffffffffffffffffffffff1602179055506040820151816002019080519060200190611416929190611bca565b506060820151816003015560808201518160040160006101000a81548173ffffffffffffffffffffffffffffffffffffffff021916908373ffffffffffffffffffffffffffffffffffffffff16021790555060a08201518160040160146101000a81548160ff02191690831515021790555050506040820151816006016000820151816000015560208201518160010160006101000a81548173ffffffffffffffffffffffffffffffffffffffff021916908373ffffffffffffffffffffffffffffffffffffffff1602179055506040820151816002019080519060200190611500929190611bca565b506060820151816003015560808201518160040160006101000a81548173ffffffffffffffffffffffffffffffffffffffff021916908373ffffffffffffffffffffffffffffffffffffffff16021790555060a08201518160040160146101000a81548160ff0219169083151502179055505050606082015181600b0160006101000a81548160ff0219169083151502179055509050506001915050611bc5565b5b8080600101915050610dad565b505b6000600190505b6000600401548111611bbf576000600701600082815260200190815260200160002060040160149054906101000a900460ff1615801561166057506000600701600082815260200190815260200160002060020160405160200161161c9190612040565b6040516020818303038152906040528051906020012083604001516040516020016116479190611fbd565b6040516020818303038152906040528051906020012014155b15611bb257600060070160008281526020019081526020016000206003015483606001511415611bb157826060015160006005016000856020015173ffffffffffffffffffffffffffffffffffffffff1673ffffffffffffffffffffffffffffffffffffffff1681526020019081526020016000206000828254039250508190555082606001516000600501600080600701600085815260200190815260200160002060010160009054906101000a900473ffffffffffffffffffffffffffffffffffffffff1673ffffffffffffffffffffffffffffffffffffffff1673ffffffffffffffffffffffffffffffffffffffff1681526020019081526020016000206000828254039250508190555060018360a001901515908115158152505060016000600701600083815260200190815260200160002060040160146101000a81548160ff02191690831515021790555060006003016000815480929190600101919050555060405180608001604052806000600301548152602001848152602001600060070160008481526020019081526020016000206040518060c0016040529081600082015481526020016001820160009054906101000a900473ffffffffffffffffffffffffffffffffffffffff1673ffffffffffffffffffffffffffffffffffffffff1673ffffffffffffffffffffffffffffffffffffffff168152602001600282018054600181600116156101000203166002900480601f0160208091040260200160405190810160405280929190818152602001828054600181600116156101000203166002900480156118fc5780601f106118d1576101008083540402835291602001916118fc565b820191906000526020600020905b8154815290600101906020018083116118df57829003601f168201915b50505050508152602001600382015481526020016004820160009054906101000a900473ffffffffffffffffffffffffffffffffffffffff1673ffffffffffffffffffffffffffffffffffffffff1673ffffffffffffffffffffffffffffffffffffffff1681526020016004820160149054906101000a900460ff1615151515815250508152602001600015158152506000600601600080600301548152602001908152602001600020600082015181600001556020820151816001016000820151816000015560208201518160010160006101000a81548173ffffffffffffffffffffffffffffffffffffffff021916908373ffffffffffffffffffffffffffffffffffffffff1602179055506040820151816002019080519060200190611a26929190611bca565b506060820151816003015560808201518160040160006101000a81548173ffffffffffffffffffffffffffffffffffffffff021916908373ffffffffffffffffffffffffffffffffffffffff16021790555060a08201518160040160146101000a81548160ff02191690831515021790555050506040820151816006016000820151816000015560208201518160010160006101000a81548173ffffffffffffffffffffffffffffffffffffffff021916908373ffffffffffffffffffffffffffffffffffffffff1602179055506040820151816002019080519060200190611b10929190611bca565b506060820151816003015560808201518160040160006101000a81548173ffffffffffffffffffffffffffffffffffffffff021916908373ffffffffffffffffffffffffffffffffffffffff16021790555060a08201518160040160146101000a81548160ff0219169083151502179055505050606082015181600b0160006101000a81548160ff0219169083151502179055509050506001915050611bc5565b5b80806001019150506115b8565b50600090505b919050565b828054600181600116156101000203166002900490600052602060002090601f016020900481019282601f10611c0b57805160ff1916838001178555611c39565b82800160010185558215611c39579182015b82811115611c38578251825591602001919060010190611c1d565b5b509050611c469190611c4a565b5090565b5b80821115611c63576000816000905550600101611c4b565b5090565b600081359050611c7681612186565b92915050565b600082601f830112611c8d57600080fd5b8135611ca0611c9b8261208f565b612062565b91508082526020830160208301858383011115611cbc57600080fd5b611cc7838284612133565b50505092915050565b600081359050611cdf8161219d565b92915050565b600060208284031215611cf757600080fd5b600082013567ffffffffffffffff811115611d1157600080fd5b611d1d84828501611c7c565b91505092915050565b60008060408385031215611d3957600080fd5b600083013567ffffffffffffffff811115611d5357600080fd5b611d5f85828601611c7c565b9250506020611d7085828601611c67565b9150509250929050565b600080600060608486031215611d8f57600080fd5b600084013567ffffffffffffffff811115611da957600080fd5b611db586828701611c7c565b935050602084013567ffffffffffffffff811115611dd257600080fd5b611dde86828701611c7c565b9250506040611def86828701611cd0565b9150509250925092565b6000611e04826120d0565b611e0e81856120db565b9350611e1e818560208601612142565b611e2781612175565b840191505092915050565b6000611e3d826120d0565b611e4781856120ec565b9350611e57818560208601612142565b80840191505092915050565b600081546001811660008114611e805760018114611ea657611eea565b607f6002830416611e9181876120db565b955060ff198316865260208601935050611eea565b60028204611eb481876120db565b9550611ebf856120bb565b60005b82811015611ee157815481890152600182019150602081019050611ec2565b80880195505050505b505092915050565b600081546001811660008114611f0f5760018114611f3457611f78565b607f6002830416611f2081876120ec565b955060ff1983168652808601935050611f78565b60028204611f4281876120ec565b9550611f4d856120bb565b60005b82811015611f6f57815481890152600182019150602081019050611f50565b82880195505050505b505092915050565b611f8981612129565b82525050565b6000611f9b8284611e32565b915081905092915050565b6000611fb28284611ef2565b915081905092915050565b60006020820190508181036000830152611fd78184611df9565b905092915050565b600060a0820190508181036000830152611ff98188611df9565b9050818103602083015261200d8187611df9565b905061201c6040830186611f80565b6120296060830185611f80565b6120366080830184611f80565b9695505050505050565b6000602082019050818103600083015261205a8184611e63565b905092915050565b6000604051905081810181811067ffffffffffffffff8211171561208557600080fd5b8060405250919050565b600067ffffffffffffffff8211156120a657600080fd5b601f19601f8301169050602081019050919050565b60008190508160005260206000209050919050565b600081519050919050565b600082825260208201905092915050565b600081905092915050565b600061210282612109565b9050919050565b600073ffffffffffffffffffffffffffffffffffffffff82169050919050565b6000819050919050565b82818337600083830152505050565b60005b83811015612160578082015181840152602081019050612145565b8381111561216f576000848401525b50505050565b6000601f19601f8301169050919050565b61218f816120f7565b811461219a57600080fd5b50565b6121a681612129565b81146121b157600080fd5b5056fea2646970667358221220794a1eab2fcbb25a722d80228f2cfbd4cffb5e7a6667b21f6f69cf3fcf906c9864736f6c634300060c0033",
  "immutableReferences": {},
  "source": "\npragma solidity ^0.6.0;\npragma experimental ABIEncoderV2;\n\ncontract Betting{\n    \n    Game public game;\n    struct Game {\n        string Team1;\n        string Team2;\n        uint time;\n        uint BetCount;\n        uint WagerCount;\n        mapping(address => uint) pending;\n        mapping(uint => Bet) Bets;\n        mapping(uint => Wager) Wagers;\n        mapping(address => Wager[]) Waitlist;\n    }\n    \n    struct Bet {\n        uint id;\n        Wager wager1;\n        Wager wager2;\n        bool closed;\n    }\n    \n    struct Wager{\n        uint id;\n        address payable Bettor;\n        string Team;\n        uint Amount;\n        address Preference;\n        bool foundMatch;\n    }\n    event checklen(uint len);\n    \n    function addGame (string memory team1, string memory team2, uint256 t) public\n    {\n        //add game according to values\n        game.Team1 = team1;\n        game.Team2 = team2;\n        game.time = block.timestamp + t;\n    }\n    function addWager (string memory team, address preference) public payable\n    {\n        //update the return value of unmatched wager for every wager being placed\n        game.pending[msg.sender] += msg.value;\n        //if preference address supplied, add wager to waitlist array and try to find a wager from there\n        if(preference == address(0x0))\n        {\n            game.WagerCount++;\n            game.Wagers[game.WagerCount] = Wager(game.WagerCount, msg.sender, team, msg.value, preference, false);\n            matchWager(game.Wagers[game.WagerCount]);\n        }\n        //if preference address not specified add wager to wager array and try to find a match from there\n        else\n        {\n            game.Waitlist[preference].push(Wager(0, msg.sender, team, msg.value, preference, false));\n            matchWager(game.Waitlist[preference][game.Waitlist[preference].length-1]);\n        }\n        \n    }\n    \n    function matchWager (Wager memory w) private returns (bool)\n    {\n        //emit checklen(game.Waitlist[w.Bettor].length);   \n        /*check waitlist data structure to see if current wager is being waited on; \n        if so match them by creating a Bet and updating the bets array with the matched Wagers*/\n       if (game.Waitlist[w.Bettor].length != 0)\n        {\n            for(uint i = 0; i < game.Waitlist[w.Bettor].length; i++)\n            {\n                if(!game.Waitlist[w.Bettor][i].foundMatch && keccak256(abi.encode(w.Team)) != keccak256(abi.encode(game.Waitlist[w.Bettor][i].Team)))\n                {\n                    if(w.Amount == game.Waitlist[w.Bettor][i].Amount)\n                    {\n                        game.pending[w.Bettor] -= w.Amount;\n                        game.pending[game.Waitlist[w.Bettor][i].Bettor] -= w.Amount;\n                        w.foundMatch = true;\n                        game.Waitlist[w.Bettor][i].foundMatch = true;\n                        game.BetCount++;\n                        game.Bets[game.BetCount] = Bet(game.BetCount, w, game.Waitlist[w.Bettor][i], false);\n                        return true;\n                    }\n                }\n            }\n        }\n\n        //loop through available wagers to find a match by creating a Bet and updating the bets array with the matched wagers\n       for(uint i = 1; i <= game.WagerCount; i++)\n       {\n           if (!game.Wagers[i].foundMatch && keccak256(abi.encode(w.Team)) != keccak256(abi.encode(game.Wagers[i].Team)))\n           {\n               if(w.Amount == game.Wagers[i].Amount)\n               {\n                   game.pending[w.Bettor] -= w.Amount;\n                   game.pending[game.Wagers[i].Bettor] -= w.Amount;\n                   w.foundMatch = true;\n                   game.Wagers[i].foundMatch = true;\n                   game.BetCount++;\n                   game.Bets[game.BetCount] = Bet(game.BetCount, w, game.Wagers[i], false);\n                   return true;\n               }\n           } \n       }\n       return false;\n    }\n\n    function closeBets(string memory winner) public \n    {\n        //check if updater has already placed a wager before to update the game status\n        //require(game.pending[msg.sender] > 0, \"Cannot update game if wager hasn't been placed\");\n        for(uint i = 1; i <= game.BetCount; i++)\n        {\n            //check if bet has already been closed\n            if(game.Bets[i].closed) continue;\n            \n            if (keccak256(abi.encodePacked(game.Bets[i].wager1.Team)) == keccak256(abi.encodePacked(winner))){\n                if(!game.Bets[i].wager1.Bettor.send(game.Bets[i].wager1.Amount * 2)){}}\n                    //revert(\"Transaction Unsuccessful\");\n            else\n                if(!game.Bets[i].wager2.Bettor.send(game.Bets[i].wager1.Amount * 2))\n                    //revert(\"Transaction Unsuccessful\");\n            game.Bets[i].closed = true;\n        }\n    }\n    function withdraw() public\n    {\n        //require(game.pending[msg.sender] > 0, \"Cannot withdraw if user has no pending returns\");\n        \n        uint amount = game.pending[msg.sender];\n        game.pending[msg.sender] = 0; \n             \n        if(!payable(msg.sender).send(amount)) \n            game.pending[msg.sender] = amount; \n    }\n    \n}\n\n",
  "sourcePath": "/home/darknight/Downloads/4575/betting/starter_kit/src/contracts/betting.sol",
  "compiler": {
    "name": "solc",
    "version": "0.6.12+commit.27d51765.Emscripten.clang"
  },
  "schemaVersion": "3.4.3",
  "updatedAt": "2021-11-14T23:24:35.841Z",
  "devdoc": {
    "kind": "dev",
    "methods": {},
    "version": 1
  },
  "userdoc": {
    "kind": "user",
    "methods": {},
    "version": 1
  }
}